:020000040800F2
:1000000000000220190400084D0300084F030008F7
:1000100051030008530300085503000800000000C6
:10002000000000000000000000000000570300086E
:1000300059030008000000005B0300085D0300088E
:1000400069040008690400086904000869040008DC
:1000500069040008690400086904000869040008CC
:1000600069040008690400086904000869040008BC
:1000700069040008690400086904000869040008AC
:100080006904000869040008690400080000000011
:1000900000000000000000000000000069040008EB
:1000A000690400086904000869040008690400087C
:1000B000690400086904000869040008690400086C
:1000C000690400086904000869040008690400085C
:1000D00069040008690400086904000800000000C1
:1000E00069040008690400086904000800000000B1
:1000F000000000000000000000000000690400088B
:100100000000000069040008690400086904000890
:1001100000000000000000000000000000000000DF
:1001200069040008690400086904000869040008FB
:10013000690400080000000000000000000000004A
:10014000000000000000000000000000690400083A
:1001500069040008690400086904000869040008CB
:1001600069040008690400080000000000000000A5
:10017000000000000000000000000000000000007F
:1001800000000000690400080000000000000000FA
:0801900069040008690400087D
:1001980010B5054C237833B9044B13B10448AFF3B9
:1001A80000800123237010BD2C04002000000000F3
:1001B8009405000808B5034B1BB103490348AFF386
:1001C800008008BD000000003004002094050008ED
:1001D80000230F2B4ED830B516E0C2681FFA83FEF5
:1001E8004FEA4E044FF0030E0EFA04FE22EA0E0206
:1001F800C260C26891F807E00EFA0CFC42EA0C02F1
:10020800C26001330F2B34D801229A400C68A243F4
:10021800F7D104684FEA430C032202FA0CF26FEAA2
:10022800020E24EA0202026002680C7904FA0CF455
:10023800224302600A79013AD2B2012ACDD88268F3
:100248000EEA0202826082684C7904FA0CF42243B6
:10025800826044689DB24FF0010E0EFA05FE24EA52
:100268000E04446044688A79AA4092B222434260EC
:10027800B3E730BD70470AB10183704741837047C7
:1002880021B1054A136B184310637047024A136B78
:1002980023EA0000106370470038024000B1FEE70F
:1002A8007047000030B583B001210220FFF7E8FF56
:1002B8004FF48073009301238DF8043000238DF8E8
:1002C800063003238DF8053069461D48FFF780FF87
:1002D80033E01B4D01224FF480712846FFF7CBFF16
:1002E8002046FFF7DBFF00224FF480712846FFF716
:1002F800C2FFC4F11E00C0B2FFF7D0FF0134E4B260
:100308001D2CE6D9002416E00D4D00224FF4807113
:100318002846FFF7B0FF2046FFF7C0FF01224FF441
:1003280080712846FFF7A7FFC4F11E00C0B2FFF78F
:10033800B5FF0134E4B21D2CE6D90024E0E700BF84
:10034800000402407047FEE7FEE7FEE7FEE770475D
:100358007047704770470000184B1A6C42F0805283
:100368001A6417490A6842F440420A609A689A6017
:100378009A689A609A6842F480529A60114A5A6060
:100388001A6842F080721A600C4B1B6813F0007FE9
:10039800FAD00D4B40F202721A60A3F580639A6896
:1003A80022F003029A609A6842F002029A60034BB4
:1003B8009B6803F00C03082BF9D170470038024002
:1003C8000070004010640107003C024008B50D4B66
:1003D8001A6842F001021A60002199601A6822F036
:1003E800847222F480321A60074A5A601A6822F42A
:1003F80080221A60D960FFF7AFFF044B4FF000620C
:100408009A6008BD003802401030002400ED00E07A
:10041800DFF834D00D480E490E4A002302E0D458C4
:10042800C4500433C4188C42F9D30B4A0B4C002334
:1004380001E013600432A242FBD3FFF7C7FF00F0CC
:1004480011F8FFF72FFF704700000220000000207E
:100458002C040020BC0500082C0400204C040020BB
:10046800FEE7000070B50D4E0D4D761BB61006D098
:10047800002455F8043B01349847A642F9D1094EA7
:10048800094D761B00F082F8B61006D0002455F806
:10049800043B01349847A642F9D170BDB005000865
:1004A800B0050008B8050008B0050008024B13B1F4
:1004B800024800F005B8704700000000D5040008A5
:1004C800002301461A46184600F01AB838B5084BFA
:1004D800084D5B1B9C1007D0043B1D44013C55F89C
:1004E80004399847002CF9D1BDE8384000F054B8D9
:1004F800BC050008B8050008704700BF704700BF7A
:100508002DE9F047DFF87CA00646DAF800009846A7
:100518000F469146FFF7F0FF1B4B1B68D3F8484185
:1005280024B365681F2D26DC5EB96B1C0235DAF82A
:100538000000636044F82570FFF7E0FF0020BDE885
:10054800F08704EB85010123C1F88890D4F888214D
:10055800AB401A43022EC4F88821C1F80881E4D1BF
:10056800D4F88C211343C4F88C31DEE703F5A67464
:10057800C3F84841D5E7DAF80000FFF7BFFF4FF0AE
:10058800FF30DCE728040020AC050008F8B500BF00
:10059800F8BC08BC9E467047F8B500BFF8BC08BC5C
:0405A8009E467047B4
:0405AC00000000202B
:0805B000B5040008BD010008BC
:0405B800990100089D
:1005BC0000000000EC02002054030020BC030020CB
:1005CC00000000000000000000000000000000001F
:1005DC00000000000000000000000000000000000F
:1005EC0000000000000000000000000000000000FF
:1005FC0000000000000000000000000000000000EF
:10060C0000000000000000000000000000000000DE
:10061C0000000000000000000000000000000000CE
:10062C0000000000000000000000000000000000BE
:10063C0000000000000000000000000000000000AE
:10064C00000000000000000000000000000000009E
:10065C00000000000000000001000000000000008D
:10066C000E33CDAB34126DE6ECDE05000B00000052
:10067C00000000000000000000000000000000006E
:10068C00000000000000000000000000000000005E
:10069C00000000000000000000000000000000004E
:1006AC00000000000000000000000000000000003E
:0C09DC00000000000000000048040020A3
:0400000508000419D2
:00000001FF
